:060000000A128A11FC2F18
:100DC6000A128A1100270A128A11831603131114B4
:100DD60008000A128A1100270A128A1183160313C1
:100DE60011150800F0000A128A1100270A128A114A
:100DF6007008831203139300080083160313141953
:100E0600052F062F002F11081F39031D0B2F0C2F3E
:100E1600002F0800F2000A128A11E3260A128A112C
:100E2600A0300A128A11F5260A128A1172080A12CD
:100E36008A11F5260A128A1171080A128A11F526F4
:100E46000A128A110A128A11EC260A128A1108005D
:100E5600003083120313A3000130A2008630A100E4
:100E6600A030A0000A128A115E270A128A113130B8
:100E7600F100C8300A128A110D270A128A11303081
:100E8600F100C9300A128A110D270A128A11303070
:100E9600F100CA300A128A110D270A128A1130305F
:100EA600F100CB300A128A110D270A128A115A2F25
:100EB6000A128A110028283083120313940083161D
:100EC60003139101831203132008A4002108A5002F
:100ED6002208A6002308A70002300310A40DA50DC2
:100EE600A60DA70DFF3E031D702F2708F300260849
:100EF600F2002508F1002408F0000130F700313037
:100F0600F6002D30F5000030F4000A128A119627FB
:100F16000A128A117008FF3E831603139300831288
:100F26000313941608000030FC000030FB0000306C
:100F3600FA000030F9007308720471047004031992
:100F4600A52FA62FF32FFD01FD0AB62F0130F800BD
:100F56000310F00DF10DF20DF30DF80BAB2F013070
:100F6600FF007F08FD07F31FB92FBA2FA92F013005
:100F7600F8000310F90DFA0DFB0DFC0DF80BBC2F54
:100F860073087702031DD12F72087602031DD12F35
:100F960071087502031DD12F70087402031CD42F2B
:100FA600D52FE42F7008F4027108031C710FF502A7
:100FB6007208031C720FF6027308031C730FF70204
:100FC600791401300310F30CF20CF10CF00CFF3E17
:100FD600031DE52F0130FD02031DF22FF32FBA2F5B
:100FE6007C08F3007B08F2007A08F1007908F0002B
:0A0FF600080083010A128A112B2F54
:08400000FF3FFF3FFF3FFF3FC0
:02400E00FF3F72
:00000001FF
