:060000000A128A110C280F
:10000800FE00030EF0000A08F1000A168A11C82F34
:100018000A128A110F288313D430FD001530FE0010
:10002800E630FF00C43084000A168A110D260A1231
:100038008A110A128A11FD270A128A11E2000A128D
:100048008A11FC270A128A11FB00A0308400C430F0
:100058000A168A1179250A128A115A3084006230E8
:100068000A168A1179250A128A11F901FA018301FF
:100078000A128A113F280A128A155D220A128A1169
:10008800C1300A168A11CC260A128A1101300A16C2
:100098008A1114270A128A1183160313E200B83052
:1000A800D8000B30D900FF30D8070318D90AFF3021
:1000B800D907580A031D6428590A031D64286528AE
:1000C80057283E306206031D6A286B2882280730AD
:1000D800831203135F0603197228732882280730D6
:1000E800DF005F08D800D9015808F7005908F80060
:1000F8000A128A1564250A128A1153293D3083167B
:1001080003136206031D89288A289728063083125C
:1001180003135F0203189128922897280130FF00E3
:100128007F08DF0775283B30831603136206031D1B
:100138009E289F28B0280230831203135F02031CF5
:10014800A628A728B02807305F060319AC28AD28D1
:10015800B0280130DF027528023083126206031DC1
:10016800B628B728F6283730831603136206031912
:10017800BE28BF28C5282F306206031DC428C528FD
:10018800F6280A168A11D9250A128A110130F600B2
:100198008030F7008030F8000A128A11CD270A1241
:1001A8008A11F201C6300A128A153F210A128A11F1
:1001B800F2010F300A128A153F210A128A11A5305E
:1001C80083120313D800D80BE728EA2804308312D7
:1001D8000313E200113083160313DF0083120313A5
:1001E80012155329063083126206031DFC28FD28C8
:1001F80053291F30831603136206031D042905299A
:10020800532948290A168A11D9250A128A11573002
:10021800F6008030F7008030F8000A128A11CD27E6
:100228000A128A11083083120313E200153083166C
:100238000313DF0053290A168A11D9250A128A11D5
:100248000A3083120313E200173083160313DF000A
:1002580053290A168A11D9250A128A110B138B13EE
:10026800003083120313AB000030AA002530A90028
:100278008030A8000A128A15C0210A128A110C308F
:1002880083120313E2001A295A08003A03190629AF
:10029800013A03191F29033A03192D295329063056
:1002A800831203136206031D5A295B29D72A2F30AC
:1002B800831603136206031D62296329D72A0530B2
:1002C80083120313E0002F30831603136206031D05
:1002D8006E296F29D72A8312031360080319752919
:1002E8007629D72A1215D72ABE30D200C7300A126B
:1002F8008A1513270A128A11EC2A02308312031373
:10030800E2001211F2010C300A128A153F210A127A
:100318008A11A53083120313D800D80B9129942988
:10032800EC2A063083120313E200133083160313FA
:10033800DF000A168A11D9250A128A11F2010C3037
:100348000A128A153F210A128A11A5308312031353
:10035800D800D80BAD29B0298312031312114428F1
:10036800831603135F0883120313A5008316031370
:1003780062080A128A11C3240A128A11023A03195E
:100388008129133A03199529EC2A831603135F0868
:1003980083120313A5008316031362080A128A1531
:1003A8002A260A128A1183160313DA00EC2A831606
:1003B80003135F0883120313A5008316031362084F
:1003C8000A128A112A260A128A11EC2A83160313A2
:1003D8005F080A168A11ED260A128A11113A031DBE
:1003E800F629F729EC2A0A168A11D9250A128A1140
:1003F800063083120313E200133083160313DF0061
:10040800442883160313E001E101DB01DC01DD016F
:10041800DE01822A83160313DB01DC01E001E1011E
:100428006108803AFF0080307F02031D1D2A0E30CC
:100438006002031C202A212A222A742A02308316E9
:1004480003136006610403192A2A2B2A322A05306D
:1004580060066104031D312A322A392A3A300A1605
:100468008A11B4250A128A116B2A083060066104C1
:1004780003193F2A402A472A0B3060066104031DEE
:10048800462A472A4E2A20300A168A11B4250A120B
:100498008A116B2A0A30F2005D080A128A15EE20CA
:1004A8000A128A11831603135B070A168A11692731
:1004B8000A128A110A168A11B4250A128A11013001
:1004C80083160313DB070318DC0A0030DC0701304E
:1004D80083160313E0070318E10A0030E107142A22
:1004E800BD300A168A118C260A128A110130831629
:1004F8000313DD070318DE0A0030DE075E08803AC2
:1005080083120313D8005B08803A5802031D902A0F
:100518005A08831603135D02031C932A942A0E2A91
:100528000A168A11D9250A128A116830F600803015
:10053800F700C030F8000A128A11CD270A128A1172
:10054800003083160313D7000730D600A130D5003A
:100558002030D400FF3083160313D407FF30031C68
:10056800D507FF30031CD607FF30031CD707540AF2
:10057800031DC82A550A031DC82A560A031DC82A7E
:10058800570A031DC82AC92AAE2A0A168A11D9256C
:100598000A128A11831603130C128C120630831266
:1005A8000313E200EC2A83126208023A031978293D
:1005B800063A0319B429023A0319C9290E3A03194C
:1005C800DB29023A0319EA29063A0319052AEC2A13
:1005D800FF3083160313DF0044280A128A110C28FF
:1005E8008312031335088039BF003508B600360773
:1005F800C600B41F002B012B022B46144608031912
:10060800062B072B172B460A031D0B2B0C2B142B21
:100618000030B5000030B4000030B3000030B20044
:10062800B417B5011F2B0030B5000030B4000030FE
:10063800B3000030B20031088039FF007F08BF06E0
:100648003108B6003607C700B01F2B2B2C2B2D2BDB
:10065800471447080319312B322B422B470A031D35
:10066800362B372B3F2B0030B1000030B000003064
:10067800AF000030AE00B017B1014A2B0030B10016
:100688000030B0000030AF000030AE003108300458
:100698002F042E04031D512B522B6B2B0030B50059
:1006A8000030B4000030B3000030B2008030B40431
:1006B8007F30B5043F08FF007F08B5043508B10056
:1006C8003408B0003308AF003208AE00C22C460828
:1006D800031D6F2B702B792B0030B1000030B00058
:1006E8000030AF000030AE00C22C4608B600B7019B
:1006F8003708B90047083602B800031CB9033808A0
:100708007F3EC00039080318013E003EC10035088D
:10071800BE003408BD003308BC003208BB000030FE
:10072800B5000030B4000030B3000030B200003033
:10073800C5000030C4000030C3000030C200C7014B
:10074800EF2B47080319A92BAA2BCA2B0130B60097
:100758000310BB0DBC0DBD0DBE0DB60BAC2B01308F
:10076800B6000310B20DB30DB40DB50DB60BB52B15
:10077800C51FBF2BC02BC12B32140130B60003108C
:10078800C20DC30DC40DC50DB60BC32B31083E02F7
:10079800031DD82B30083D02031DD82B2F083C021F
:1007A800031DD82B2E083B02031CDB2BDC2BEB2B69
:1007B80045172E08BB022F08031C2F0FBC02300858
:1007C800031C300FBD023108031C310FBE0201307B
:1007D800FF007F08C7071A304702031CF42BF52BCC
:1007E800A52B3E083D043C043B040319FC2BFD2BC0
:1007F8001C2C42141C2C0130B6000310B20DB30D92
:10080800B40DB50DB60B012CC51F0B2C0C2C0D2CE3
:1008180032140130B6000310C20DC30DC40DC50D4E
:10082800B60B0F2CFF30C0070318C10AFF30C107F1
:10083800B41F1F2C202CFF2BC701C51F242C252CCF
:10084800412CFF304205B600FF304305B700FF30AA
:100858004405B8007F304505B90039083804370425
:1008680036040319382C392C3C2CC701C70A412CF3
:10087800321C3F2C402C412C392C47080319452C9D
:10088800462C772C0130B207003003180130B3072B
:10089800003003180130B407003003180130B507E1
:1008A800351C572C582C772C3208B6003308B70063
:1008B8003408B8003508B9000130BA00390DB90C50
:1008C800B80CB70CB60CBA0B622C3908B50038084E
:1008D800B4003708B3003608B2000130C007031867
:1008E800C10A0030C1074108803AFF0080307F020A
:1008F800031D802CFF304002031C832C842C922C77
:10090800FF3083120313C0000030C1000030B5006F
:100918000030B4000030B3000030B200831203137B
:100928004108803AFF0080307F02031D9D2C013072
:1009380040020318A02CA12CAE2C83120313C00173
:10094800C1010030B5000030B4000030B300003001
:10095800B200BF01831203134008C600461CB52C21
:10096800B62CB82CB417BC2C7F30FF007F08B40518
:100978004608B6000310360CB5005E2B080083123B
:100988000313AD0011302506031DCB2CCC2CDB2C1A
:100998000530DE003330FA00DD0183160313BA0197
:1009A800BB01BC01BD013F3083120313AD005E08DB
:1009B800031DDF2CE02CE22C0230292E37302D06C7
:1009C800031DE72CE82C062D04305D020318ED2CDE
:1009D800EE2C062D5D08BA3E84003130831380006A
:1009E8005D08C63EF8002A300A168A111C260A122B
:1009F8008A110130FF007F0883120313DD070530D9
:100A0800DE00222D2F302D06031D0B2D0C2D222D3F
:100A180004305D020318112D122D222D5D08BA3EF7
:100A280084003030831380005D08C63EF8002A3009
:100A38000A168A111C260A128A11FD2C04305D063A
:100A4800031D272D282D282EAE01AF018312031375
:100A58002E08CF3E840083130008FF002E08293E8D
:100A680084007F0880000130AE070318AF0A003009
:100A7800AF072F08803AFF0080307F02031D462D04
:100A880004302E02031C492D4A2D2A2DCF30F200A6
:100A98000430F3000030F400BA300A128A150D222F
:100AA8000A128A1172087304031D5B2D5C2D5E2DDA
:100AB8001130292E0130FA0230307A06031D652DD7
:100AC800662DCD2DF2010C300A128A153F210A122B
:100AD8008A11A53083120313A600A60B712D742D5D
:100AE8004630F6008030F7008030F8000A128A118C
:100AF800CD270A128A113530F6008030F700C03051
:100B0800F8000A128A11CD270A128A113C30831282
:100B18000313E000C32DCB30F8000A30F200003098
:100B2800F3006008A600A7012608F4002708F500CE
:100B38000A128A1541240A128A117208303E0A16CE
:100B48008A111C260A128A11CC30F8000A30F200E9
:100B58000030F300831203136008A600A7012608DB
:100B6800F4002708F5000A128A15B4220A128A111D
:100B78007208303E0A168A111C260A128A1183123C
:100B880003136008031DC92DCA2D8F2D3330FA00B9
:100B9800FE2D0A168A11D9250A128A111330F60079
:100BA8008030F7008030F8000A128A11CD270A1227
:100BB8008A11C030F8007A080A168A111C260A120F
:100BC8008A117930F6008030F700C130F8000A1237
:100BD8008A11CD270A128A114D3083120313A800F7
:100BE8001930A7004F30A600A60BF82DA70BF82D3B
:100BF800A80BF82D0A168A11D9250A128A11013074
:100C0800F6008030F7008030F8000A128A11CD27EC
:100C18000A128A11F201C6300A128A153F210A12F5
:100C28008A11F2010F300A128A153F210A128A111D
:100C3800A53083120313A600A60B202E232E8312A1
:100C48000313DD010530DE001030080083120313A2
:100C5800B4005A085B04031D322E332E3F2EB430E5
:100C6800F6008030F700C030F8000A128A11CD274C
:100C78000A128A113B2F15302506031D442E452ED6
:100C8800462EE1012F303406031D4B2E4C2E662EC6
:100C98005A08FF3EA6005B080318013EFF3EA70066
:100CA8002708803A803C031D5B2E26086102031842
:100CB8005E2E5F2E662E0130FF007F08831203131D
:100CC800E107752E3730831203133406031D6D2E8A
:100CD8006E2E752E61080319722E732E752E013033
:100CE800E1020A306102031C7A2E7B2E7C2EE10180
:100CF8000A30F20061080A128A15EE200A128A11D7
:100D080083120313B300B501B60183120313350828
:100D1800283E8400350833070A168A1169270A1203
:100D28008A1183138000013083120313B507031857
:100D3800B60A0030B6073608803AFF0080307F02D6
:100D4800031DA82E0A303502031CAB2EAC2E892EAB
:100D5800C030F8000A30F2000030F30083120313A9
:100D68006108A600A7012608F4002708F5000A1262
:100D78008A15B4220A128A117208303E0A168A119C
:100D88001C260A128A11C230F8008312031328089D
:100D98000A168A111C260A128A11C330F800831217
:100DA800031329080A168A111C260A128A11C4304C
:100DB800F8003A300A168A111C260A128A11C53020
:100DC800F800831203132A080A168A111C260A122D
:100DD8008A11C630F800831203132B080A168A11E9
:100DE8001C260A128A11C730F8003A300A168A11EE
:100DF8001C260A128A11C830F800831203132C0823
:100E08000A168A111C260A128A11C930F8008312A0
:100E180003132D080A168A111C260A128A11CB30D0
:100E2800F800831203132E080A168A111C260A12C8
:100E38008A11CC30F800831203132F080A168A117E
:100E48001C260A128A11CE30F800831203133008C8
:100E58000A168A111C260A128A11CF30F80083124A
:100E6800031331080A168A111C260A128A113B300C
:100E7800831203133406031D422F432F542F0A16DF
:100E88008A11D9250A128A11F2010C300A128A1520
:100E98003F210A128A11063083120313E200E1018E
:100EA80008000310831203134A0D4B0DD10051089B
:100EB800031D5F2F602F692F0030CB000030CA0060
:100EC8000030C9000030C800CC2F4808CC004908C1
:100ED800CD004A08CE004B08CF001F300310CF0CBE
:100EE800CE0CCD0CCC0CFF3E031D722F4C08D0004D
:100EF800CA17FF30C805FF30C905FF30CA050030E2
:100F0800CB059630D102D11F8A2F8B2FA52F5108E0
:100F1800803A973E0318912F922F932F602F01301C
:100F28000310CB0CCA0CC90CC80CFF3E031D942F30
:100F38000130FF007F08D107031DA32FA42F932F93
:100F4800BC2F20305102031CAA2FAB2FB72F602FC4
:100F58000130CC000310C80DC90DCA0DCB0DCC0B48
:100F6800AE2F0130D1025108031DBB2FBC2FAC2F6F
:100F780050080319C02FC12FCC2FC809C909CA09A5
:100F8800CB09C80A0319C90A0319CA0A0319CB0AE3
:100F98000800F20178080A128A153F210A128A11FC
:100FA800EB2FF201F20A7708FF00760884000A1294
:100FB8008A1500200A128A110A128A153F210A127C
:100FC8008A110130F6070318F70A0030F707770887
:100FD80083120313FF00760884000A128A15002082
:100FE8000A128A11003A031DFA2FFB2FD52F080089
:040FF800013402348A
:10100000FF1B0A2883137F1883170008840A03191B
:10101000FF0A080008308A000408840A82070034A6
:10102000203445344E345434453452342034203442
:10103000503441345334533457344F34523444349D
:10104000203400342034573452344F344E34473433
:101050002034503441345334533457344F345234A1
:101060004434203400342034543449344D3445342D
:101070002034203420342034203445345634203475
:101080002034533450340034573461346934743468
:101090002E342E342E3466346F3472342034363489
:1010A00030347334653463340034203459346F344D
:1010B00075342034613472346534203462346C34D5
:1010C0006F3463346B346534643400342334203437
:1010D000543449344D3445342034203420342034C1
:1010E00020342034453420345334503400344634D2
:1010F00069346C3465347334203444346F34773459
:101100006E346C346F346134643465346434003468
:10111000203461347434743465346D347034743410
:101120002034723465346D34613469346E34003483
:1011300020344C346F3467347334203443346C348B
:10114000653461347234653464342034003443349B
:101150006C3465346134723420346C346F346734E9
:10116000003444346F3477346E346C346F3461340B
:1011700064340034563469346534773420346C3444
:101180006F346734003420344E346F3420346C3480
:101190006F346734733400340A340D340034473408
:1011A000313400344734323400344734333400347B
:1011B00047343434003420344334003447344E341C
:1011C00000344F344E3400344734523400348316E4
:1011D00003139F17831203131F140800F400F30175
:1011E000741CF328F428F8287208FF007F08F3071E
:1011F0000310F20D0310F40C7408031D00290129DB
:10120000F02873080800831203132008210403192F
:101210000A290B293A29A401A40A1929013003102B
:10122000A00DA10DFF3E031D0F290130FF007F0817
:10123000A407A11F1C291D290E2921082302031D13
:10124000232920082202031C262927292D292008CA
:10125000A2022108031CA303A30201300310A10C66
:10126000A00CFF3E031D2E290130A402031D3929C5
:101270003A291D292308A1002208A0000800F50032
:101280007218432947298312031309154A29831227
:10129000031309117508F03988008914A630F3008A
:1012A000F30B50290000831203138910A630F300BA
:1012B000F30B5829000075080F39F30003300310B1
:1012C000F30DFF3E031D5F290310730D83120313FB
:1012D00088008914A630F300F30B6C2900008312F8
:1012E000031389101B30F4009E30F300F30B7629B2
:1012F000F40B762900000800F701F8017208730466
:10130000031983298429BB29F601F60A92290130A1
:101310000310F20DF30DFF3E031D88290130FF007D
:101320007F08F607F31F95299629872901300310B6
:10133000F70DF80DFF3E031D972973087502031D75
:10134000A32972087402031CA629A729AE297208D2
:10135000F4027308031CF503F5027714013003103F
:10136000F30CF20CFF3E031DAF290130F602031D02
:10137000BA29BB2996297808F3007708F2000800FB
:101380008316031387170713981318139816181248
:101390001815981018108312031398171813981221
:1013A000181698111811981018102808AC00290860
:1013B000AD002A08AE002B08AF0004300310AC0DBE
:1013C000AD0DAE0DAF0DFF3E031DDE292F08A300AE
:1013D0002E08A2002D08A1002C08A0000130A700B3
:1013E0003130A6002D30A5000030A4000A128A1565
:1013F00070230A128A15831203132008FF3E8316F6
:10140000031399000C16831203130C128316031393
:101410008C16831203138C120800F7000130F302BC
:101420000030031CF403F402730A031D1B2A740A20
:10143000031D1B2A1C2A2D2AF201F3015C2A01300C
:10144000FF007F08F7070130FF007F08F207013037
:10145000F3020030031CF403F402770884008313C2
:1014600000080319342A352A4E2A7208840000081D
:1014700003193B2A3C2A4E2A730874040319412A93
:10148000422A4E2A720884000008F500770884007A
:101490000008750603194D2A4E2A1F2A7208840077
:1014A0000008F500770884000008F6007508760249
:1014B000F200F301031CF30308000030831203134E
:1014C000AB000130AA008630A900A030A8000A169F
:1014D0008A1194270A128A150A168A11F6250A1209
:1014E0008A150A168A11A9250A128A150A168A115E
:1014F00073250A128A150A128A15E7200A128A151C
:101500000A168A11CC250A128A150B178B17C830B8
:1015100083120313B000B101B20183120313310827
:10152000CF3E840030080A168A1169270A128A15EC
:10153000831380000130FF007F0883120313B0077C
:101540000130B1070318B20A0030B2073208803AFE
:10155000FF0080307F02031DAF2A04303102031CDC
:10156000B22AB32A8D2A0800F701F51FB82AB92A32
:10157000C02AF409F509F40A0319F50AF701F70A74
:10158000F31FC32AC42AC92AF209F309F20A03196C
:10159000F30A720873040319CE2ACF2AFE2AF60131
:1015A000F60ADD2A01300310F20DF30DFF3E031D94
:1015B000D32A0130FF007F08F607F31FE02AE12A53
:1015C000D22A73087502031DE72A72087402031CED
:1015D000EA2AEB2AF12A7208F4027308031CF503C5
:1015E000F50201300310F30CF20CFF3E031DF22A4A
:1015F0000130F602031DFD2AFE2AE12A77080319AD
:10160000022B032B082BF409F509F40A0319F50A38
:101610007508F3007408F2000800C330F700CD30FD
:10162000F600F60B112BF70B112BF20133300A12D7
:101630008A153F210A128A151B30F7009E30F600EA
:10164000F60B202BF70B202B0000F20133300A128F
:101650008A153F210A128A15A630F600F60B2E2BAA
:101660000000F20133300A128A153F210A128A154E
:10167000392B3A2B0000F20102300A128A153F2161
:101680000A128A15A630F600F60B442B0000F20170
:1016900028300A128A153F210A128A15A630F60050
:1016A000F60B502B0000F20101300A128A153F217F
:1016B0000A128A150430F7003D30F600F60B5E2B57
:1016C000F70B5E2B632BF2010C300A128A153F21B7
:1016D0000A128A15A630F600F60B6C2B00000800E3
:1016E0000030F6000030F5000030F4000030F30068
:1016F0008312031323082204210420040319812BDD
:10170000822BCF2BF701F70A922B0130F200031046
:10171000A00DA10DA20DA30DF20B872B0130FF0030
:101720007F08F707A31F952B962B852B0130F2001E
:101730000310F30DF40DF50DF60DF20B982B2308A5
:101740002702031DAD2B22082602031DAD2B210805
:101750002502031DAD2B20082402031CB02BB12B46
:10176000C02B2008A4022108031C210FA502220877
:10177000031C220FA6022308031C230FA7027314C5
:1017800001300310A30CA20CA10CA00CFF3E031D02
:10179000C12B0130F702031DCE2BCF2B962B7608E1
:1017A000A3007508A2007408A1007308A000080037
:1017B00083120313A1002108840083130008A000F2
:1017C00004300310A00CFF3E031DE12B2008033959
:1017D000303E83160313B1008312031321088400E3
:1017E00000080F39303E83160313B2003A30B300BD
:1017F00083120313210A84000008A00004300310A0
:10180000A00CFF3E031DFF2B20080739303E831636
:101810000313B40083120313210A840000080F3954
:10182000303E83160313B5003A30B600831203131B
:101830002108023E84000008A00004300310A00C20
:10184000FF3E031D1E2C20080739303E831603136C
:10185000B700831203132108023E840000080F39E9
:10186000303E83160313B800B901B130F6000030E2
:10187000F700C030F8000A128A11CD270A128A1523
:10188000080083120313A101F31F472C482C4F2C8F
:10189000F209F309F20A0319F30AA101A10AF51FDB
:1018A000522C532C5C2CF409F509F40A0319F50A9F
:1018B0000130FF007F08A106A201A3017208730492
:1018C0000319632C642C9B2CA001A00A722C0130FC
:1018D0000310F20DF30DFF3E031D682C0130FF00D5
:1018E0007F08A007F31F752C762C672C013003109E
:1018F000A20DA30DFF3E031D772C73087502031D77
:10190000832C72087402031C862C872C8E2C720880
:10191000F4027308031CF503F502221401300310CE
:10192000F30CF20CFF3E031D8F2C0130A002031DAF
:101930009A2C9B2C762C210803199F2CA02CA52CCB
:10194000A209A309A20A0319A30A2308F300220883
:10195000F200080083120313A80028080319B12C11
:10196000B22CC62CA31FB52CB62CC62C2009AA005D
:101970002109AB002209AC002309AD00AA0A031912
:10198000AB0A0319AC0A0319AD0ACE2C2308AD002B
:101990002208AC002108AB002008AA00230822047A
:1019A00021042004031DD52CD62CDF2C0030A300ED
:1019B0000030A2000030A1000030A000632D96305E
:1019C000A900EF2C0130FF007F08A90701300310A8
:1019D000AD0CAC0CAB0CAA0CFF3E031DE72CFE308B
:1019E0002D05031DF42CF52CE22C112D0130FF00E8
:1019F0007F08A9070130AA07003003180130AB07A0
:101A0000003003180130AC07003003180130AD0777
:101A100001300310AD0CAC0CAB0CAA0CFF3E031D47
:101A2000092DFF302D05031D162D172DF62C232D06
:101A30000130A9020130A4000310AA0DAB0DAC0DBA
:101A4000AD0DA40B1C2DAC1B262D272D2D2D0230EA
:101A5000290203182C2D2D2D182D2918302D312D4C
:101A6000392DFF30AA05FF30AB057F30AC05FF30C4
:101A7000AD050310A90C2908A400A501A601A70122
:101A800018300310A40DA50DA60DA70DFF3E031DD4
:101A9000412D2408AA042508AB042608AC04270815
:101AA000AD0428080319552D562D5B2DA31F592D64
:101AB0005A2D5B2DAD172D08A3002C08A2002B0872
:101AC000A1002A08A000080083120313A001A101AD
:101AD000A201A3018A2D2008B13E84003A300006FD
:101AE0000319732D742D842D2008B13E8400000845
:101AF000FF002208A03E84007F0880000130A2077A
:101B00000318A30A0030A3070130A0070318A10A95
:101B10000030A1072008B13E840083130008031D94
:101B2000922D932D6B2D7708C73E8400000884000A
:101B30000A128A150A200A128A15FF002208A03EFE
:101B400084007F0880000130A2070318A30A003038
:101B5000A3077708C73E84000008013E84000A12EC
:101B60008A150A200A128A15FF002208A03E840066
:101B70007F0880000130A2070318A30A0030A307E2
:101B80002208A03E8400831603133E088000013023
:101B900083120313A2070318A30A0030A307220825
:101BA000A03E8400831603133F0880000130831297
:101BB0000313A2070318A30A0030A307A201A3017D
:101BC000831203132208A03E840083130008F5004B
:101BD0000A30F2005A080A128A15EE200A128A15F3
:101BE0008312031322070A168A114F260A128A1536
:101BF000013083120313A2070318A30A0030A307BE
:101C00002308803AFF0080307F02031D092E0B302D
:101C10002202031C0C2E0D2EE02D831203135B08F1
:101C2000803AFF0080307F02031D182E0A305A02CE
:101C300003181B2E1C2E252E013083120313DA07E6
:101C40000318DB0A0030DB07292E83120313DA01A5
:101C5000DB01080083120313A60013302506031DC1
:101C6000322E332E392EDC010A168A11D9250A129A
:101C70008A152F30831203132606031D402E412E92
:101C8000512E02305C020318462E472E512E013091
:101C9000FF007F08DC070A168A11D9250A128A1567
:101CA0005F2E37302606031D562E572E5F2E5C08FA
:101CB00003195B2E5C2E5F2E0130DC024B2E83124B
:101CC00003135C08031D652E662E952E8030F800E8
:101CD0003E300A168A111C260A128A158312031333
:101CE0005C08C43E840083130008F6000030031D26
:101CF0008030F7008230F8000A128A11CD270A12CC
:101D00008A15831203135C08C53E84008313000800
:101D1000F6000030031D8030F700C230F8000A12D0
:101D20008A11CD270A128A15F92E5C03031D992EFC
:101D30009A2EC72E5C08C33E840083130008F60069
:101D40000030031D8030F7008230F8000A128A113B
:101D5000CD270A128A15831203135C08C43E84003F
:101D600083130008F6000030031D8030F700C230F6
:101D7000F8000A128A11CD270A128A15C030F8001D
:101D80003E300A168A111C260A128A15F92E0230D4
:101D90005C06031DCC2ECD2EF92E5C08C33E8400BC
:101DA00083130008F6000030031D8030F7008230F6
:101DB000F8000A128A11CD270A128A15831203131A
:101DC0005C08C43E840083130008F6000030031D45
:101DD0008030F700C230F8000A128A11CD270A12AB
:101DE0008A15C030F8003E300A168A111C260A12E5
:101DF0008A153B30831203132606031D002F012F83
:101E0000112F0A168A11D9250A128A15F2010C30EF
:101E10000A128A153F210A128A150230831203130F
:101E2000E2005C08080083120313D7002430F60098
:101E30008030F7008030F8000A128A11CD270A128C
:101E40008A15831203135F085707D30053088400D1
:101E500083130008F6000030031D8030F700CA30FD
:101E6000F8000A128A11CD270A128A15033083124C
:101E70000313D5008A30D4005530D300D30B3E2F46
:101E8000D40B3E2FD50B3E2F00300A168A116D263B
:101E90000A128A15720883120313D3007308D40040
:101EA000D501D6015608A3005508A2005408A10088
:101EB0005308A00000300A128A15AA240A128A15B3
:101EC000831203132308B5002208B4002108B300CD
:101ED0002008B2004130B1002330B000AE30AF0076
:101EE0001430AE000A128A11F4220A128A158312E3
:101EF00003133108CB003008CA002F08C9002E0890
:101F0000C8000A128A1155270A128A158312031370
:101F1000490883160313B00083120313480883167D
:101F20000313AF0083120313520884006430F200DD
:101F30000030F300831603133008F5002F08F40077
:101F40000A128A157C210A128A157208303E831300
:101F5000800083120313520884000A30A00000306E
:101F6000A1000A30F2000030F3008316031330089A
:101F7000F5002F08F4000A128A157C210A128A152E
:101F8000730883120313A3007208A2000A128A15B1
:101F900003210A128A15831203132008303E83138B
:101FA0008000520A84000A30A0000030A10083168D
:101FB0000313300883120313A300831603132F089F
:101FC00083120313A2000A128A1503210A128A152A
:101FD000831203132008303E831380005208F6005A
:101FE0000030F700CE30F8000A128A11CD270A120D
:101FF0008A15C1300A128A15D8230A128A150800D8
:102AE6008316031306083F38860008006400800139
:102AF600840A04060319003404067A2D0A168A117C
:102B0600BF250A168A1183160313111408000A1624
:102B16008A11BF250A168A11831603131115080098
:102B26000A168A118A250A168A110A168A11812519
:102B36000A168A110800F2000A168A11BF250A161B
:102B46008A11720883120313930008008316031375
:102B56008801091189100A128A150D230A168A118D
:102B66000800F20072088312031399000C1EBC2D94
:102B7600BD2DB92D0C120800831603131419C42D8C
:102B8600C52DBF2D11081F39031DCA2DCB2DBF2DF5
:102B960008008312031312149214FA3083160313D7
:102BA60092008C148312031312110800F2010130F3
:102BB6000A128A153F210A168A11A630F600F60B6C
:102BC600E22D00000800AB349834A234D234CF345E
:102BD600C034C334C634C934D534CC34303430343C
:102BE60030343034003400300A168A113E270A1673
:102BF6008A11F60076087F39F6007608F300003071
:102C06000A168A1131260A168A1108007E088A00D9
:102C16007F0882000A168A1109260A168A11800080
:102C2600840A04087D0603190034FF0A0319FE0A04
:102C36000D2E83120313A400F20178080A128A15D6
:102C46003F210A168A11F201F20A8312031324089D
:102C56000A128A153F210A168A110800F4000A167C
:102C66008A1181250A168A11D0300A168A119E25E4
:102C76000A168A1174080A168A119E250A168A11DE
:102C860073080A168A119E250A168A110A168A11CF
:102C96008A250A168A110800F6000A168A11812565
:102CA6000A168A11A0300A168A119E250A168A115A
:102CB60076080A168A119E250A168A1175080A16BA
:102CC6008A119E250A168A110A168A118A250A165B
:102CD6008A110800F5007508F40003300310F40D9E
:102CE600FF3E031D712E831203131F08C739740498
:102CF6009F001F151F19802E812E7D2E1E08F7009E
:102D0600831603131E08F6007708F3007608F20010
:102D16000800F3009E2E730884000A128A150A2002
:102D26000A168A110A168A11B4250A168A11013062
:102D3600FF007F08F307730884000A128A150A2029
:102D46000A168A11003A031DA92EAA2E8E2E0800F5
:102D5600F2000A168A11BF250A168A118316031372
:102D660091150A168A11BF250A168A1183120313B2
:102D76001308F3007203031DC12EC22EC62E83163E
:102D860003139116C92E8316031391121116730895
:102D96000800F6007608840002300A168A113E27DB
:102DA6000A168A1183138000760A840001300A16F7
:102DB6008A113E270A168A11831380007608023E7E
:102DC600840000300A168A113E270A168A118313D8
:102DD600800008000A30831203136206031DF42ED6
:102DE600F52E122FDA01DB018930F6008030F7006C
:102DF6008030F8000A128A11CD270A168A114D3042
:102E060083120313A2001930A1004F30A000A00BBB
:102E16000A2FA10B0A2FA20B0A2F1130132F2230D3
:102E26000800F3007308031D192F1A2F1F2F831292
:102E3600031306083F393D2F3F308312031306055F
:102E4600F2003F3072060319292F2A2F312F7B08F3
:102E560003192E2F2F2F312FFB011A2F3F30060576
:102E6600F2003F307206031D392F3A2F3C2FFB012B
:102E7600FB0A3F300800F4000A168A1181250A165B
:102E86008A11D0300A168A119E250A168A117408EC
:102E96000A168A119E250A168A110A168A11932580
:102EA6000A168A11D1300A168A119E250A168A1127
:102EB60000300A168A11AB260A168A11F5000A1680
:102EC6008A118A250A168A1175080800F4000A165E
:102ED6008A1181250A168A11A0300A168A119E25A2
:102EE6000A168A1174080A168A119E250A168A116C
:102EF6000A168A1193250A168A11A1300A168A1112
:102F06009E250A168A1100300A168A11AB260A1661
:102F16008A11F5000A168A118A250A168A11750879
:102F260008008312031394152808AC002908AD0085
:102F36002A08AE002B08AF0002300310AC0DAD0D11
:102F4600AE0DAF0DFF3E031DA02F2F08A3002E08C8
:102F5600A2002D08A1002C08A0000130A7003130E6
:102F6600A6002D30A5000030A4000A128A15702391
:102F76000A168A11831203132008FF3E83160313D1
:102F860093008312031394160800831203138C1CF8
:102F9600CD2FCE2FF92F013083160313AB0703185D
:102FA600AC0A0030AC0704302C02E23003192B02C5
:102FB600031CDE2FDF2FF72FAB01AC0183120313A7
:102FC60060080319E72FE82FEB2F0130E002F72FF7
:102FD6006008031DEF2FF02FF72F5E080319F42F5B
:102FE600F52FF72F0130DE0283128C1071088A004C
:0A2FF600700E8300FE0E7E0E09002F
:08400000FF3FFF3FFF3FFF3FC0
:02400E00FB3F76
:00000001FF
